:100000008DC00000AFC00000ADC00000ABC000005C
:10001000A9C00000A7C00000A5C00000A3C0000048
:10002000A1C000009FC0000019C40000E0C400008F
:1000300099C0000097C0000095C0000093C0000068
:1000400091C000008FC000008DC000008BC0000078
:1000500089C0000087C0000085C0000083C0000088
:1000600081C000007FC000007DC000007BC0000098
:1000700079C0000077C0000075C0000073C00000A8
:1000800071C000006FC000006DC000006BC00000B8
:1000900069C0000067C0000065C0000063C00000C8
:1000A00061C000005FC000005DC0000012011001CF
:1000B00002000008EB03442001000102DC010902F8
:1000C0003E00020100C032090400000102020100EA
:1000D000052400100104240206052406000107057A
:1000E00082030800FF09040100020A00000007055E
:1000F000040210000507058302100005040309042B
:100100000E0373006F006C00690064007300000050
:10011000160372006F0074006F00000080916F0181
:100120008B3B21F490E090936F01089511241FBE42
:10013000CFEFDAE0DEBFCDBF11E0A0E0B1E0E2E258
:10014000F7E102C005900D92A435B107D9F711E08F
:10015000A4E5B1E001C01D92A538B107E1F71DD1BA
:100160000C948F0B4DCF883090F490B321E030E0A9
:1001700002C0220F331F8A95E2F7822F80958923D0
:1001800080BB80917E00822B80937E000895883012
:1001900039F4549880917D00816080937D000895AA
:1001A000282F30E08B3088F46AB1A90143505040C9
:1001B00081E090E0FC0102C0EE0FFF1F4A95E2F7DC
:1001C000AF01409546234AB910C064B1A901475018
:1001D000504081E090E0FC0102C0EE0FFF1F4A9505
:1001E000E2F7AF014095462344B940917D00285085
:1001F000304002C0880F991F2A95E2F7482B4093A0
:100200007D000895813279F48BEB80936F012CE0AF
:1002100088E190E00FB6F894A895809360000FBE37
:1002200020936000FFCF089584B7877F84BF88E163
:100230000FB6F89480936000109260000FBE90E0BB
:1002400080E80FB6F89480936100909361000FBE30
:10025000E8D214B885EA80937A0080E084DF81E0F8
:1002600082DF8FEF85B90895EF92FF920F931F936E
:10027000DF93CF93CDB7DEB7C054D0400FB6F8941C
:10028000DEBF0FBECDBF80915601882309F5E091F6
:100290005401F0915501EE0FFF1FE05BFE4F80818E
:1002A0009181806680937C0090FF04C080917B00E8
:1002B000806203C080917B008F7D80937B00809162
:1002C0007A00806480937A0081E08093560157C061
:1002D00080917A0084FF53C080917A00806180937E
:1002E0007A000091780010917900809154019091EA
:1002F0005501FC01EE0FFF1FE959FE4F20813181AE
:1003000020173107D1F120915701222361F12DB738
:100310003EB7285030400FB6F8943EBF0FBE2DBFF9
:10032000EDB7FEB731967E010894E11CF11CADB724
:10033000BEB71296FC92EE92119720E031E0338323
:10034000228395838483178306831AD72DB73EB7FC
:10035000285F3F4F0FB6F8943EBF0FBE2DBFC701B9
:1003600068E571E0EAD6E0915401F0915501EE0F95
:10037000FF1FE959FE4F1183008310925601C05CA4
:10038000DF4F0FB6F894DEBF0FBECDBFCF91DF9128
:100390001F910F91FF90EF9008951F93CF93DF93DC
:1003A00043DF85E391E068E571E0B3D6789411E02E
:1003B0005BDF9091570180916601992379F0882342
:1003C00091F41093660187E091E068E571E0B5D69D
:1003D0008DE091E068E571E0B0D611C0882319F096
:1003E000109266010CC085E391E017D6EC012097CE
:1003F00031F085E391E046D605DF2197F8CF85E31C
:1004000091E0F3D593D4D4CF85E391E058C585E34B
:1004100091E0A8C4FC0180899189817090708093DB
:1004200057010895923029F0933041F09130F9F45A
:1004300019C02EE330E0EEEBF0E01DC0813049F052
:10044000813018F0823099F408C0ECEFF0E024918C
:1004500007C0E0E0F1E0249103C0E0E1F1E0249185
:1004600030E009C022E130E0ECEAF0E004C020E036
:1004700030E0E0E0F0E0DA011196FC93EE93C90180
:100480000895482F592FFA0180918301909184019A
:100490008617970718F4BC0140E03CC06115710550
:1004A000D9F78091E8008E778093E800F5CF8091AE
:1004B0007C01882309F444C08530F1F18091E80083
:1004C00083FD3CC08091E80082FD30C08091E8004F
:1004D00080FF20C09091F3008091F200392F20E03E
:1004E00090E0822B932B06C041914093F100615024
:1004F000704001966115710519F088309105A0F3DF
:1005000041E08830910509F040E08091E8008E7765
:100510008093E8006115710551F6442341F606C049
:1005200080917C01882361F0853061F08091E80042
:1005300082FFF6CF80E0089583E0089581E008957A
:1005400082E0089583E00895E82FF92F80918301D8
:10055000909184018617970718F4BC0140E03EC0D3
:1005600061157105D9F78091E8008E778093E800D6
:10057000F5CF80917C01882309F446C0853009F4C9
:100580003FC08091E80083FD3DC08091E80082FD7E
:1005900031C08091E80080FF21C09091F3008091EC
:1005A000F200392F20E090E0822B932B07C044917A
:1005B0004093F100319661507040019661157105CC
:1005C00019F08830910598F341E08830910509F0E1
:1005D00040E08091E8008E778093E8006115710516
:1005E00041F6442331F606C080917C01882361F0F6
:1005F000853061F08091E80082FFF6CF80E00895B9
:1006000083E0089581E0089582E0089583E00895ED
:10061000982F2CC0292F2F702093E900981739F0BC
:100620007091EC002091ED005091F00003C0242F58
:10063000762F50E021FF19C03091EB003E7F3093C0
:10064000EB003091ED003D7F3093ED003091EB00F9
:1006500031603093EB007093EC002093ED005093E9
:10066000F0002091EE0027FF08C09F5F973090F2C6
:100670008F708093E90081E0089580E008950F93E2
:100680001F93CF93DF93162FC82FD92F00E02AC0D6
:100690009881992329F16B81E981FA812C81892F35
:1006A0008F70873018F56295660F660F607C991F12
:1006B0009927991F692B223010F096E001C092E033
:1006C00028E030E040E003C04F5F220F331F2E17B9
:1006D0003F07D0F34295407F492B9ADF882331F0C2
:1006E0000F5F25960117A0F281E001C080E0DF9145
:1006F000CF911F910F91089580917D0187FF13C0C5
:1007000004C080917C018823B9F08091E80082FFC9
:10071000F8CF8091E8008B778093E800089580916E
:100720007C01882349F08091E80080FFF8CF809118
:10073000E8008E778093E80008958091E40090911E
:10074000E50044E62091EC0020FF26C02091E8005F
:1007500020FD16C020917C012223A1F02530A1F0BC
:100760002091EB0025FD12C02091E4003091E500BE
:100770002817390739F3442359F04150C901E2CF12
:1007800080E0089582E0089583E0089581E008956F
:1007900084E0089580E008952091E80022FFDACFF8
:1007A000F9CF0F931F93CF93DF934BD052D0C8ED67
:1007B000D0E088818F77888388818068888388816A
:1007C0008F7D888319BC10927C0110927801109261
:1007D0007A011092790100EE10E0F80180818B7FA0
:1007E000808388818160888380E060E042E010DF60
:1007F000E1EEF0E080818E7F8083E2EEF0E08081A8
:1008000081608083808188608083F80180818E7F11
:100810008083888180618883DF91CF911F910F91C0
:100820000895E8EDF0E080818F7E8083E7EDF0E0D1
:1008300080818160808384E082BF81E080937B013E
:10084000B0CFE8EDF0E080818E7F80831092E200EF
:1008500008951092DA001092E10008951F920F920D
:100860000FB60F9211242F933F934F935F936F9383
:100870007F938F939F93AF93BF93EF93FF93809159
:10088000E10082FF0AC08091E20082FF06C08091F1
:10089000E1008B7F8093E10048D28091DA0080FFF5
:1008A0001DC08091D80080FF19C08091DA008E7F32
:1008B0008093DA008091D90080FF0CC080E189BD6F
:1008C00082E189BD09B400FEFDCF81E080937C0107
:1008D0002CD204C019BC10927C0127D28091E10077
:1008E00080FF18C08091E20080FF14C08091E20078
:1008F0008E7F8093E2008091E20080618093E2002D
:100900008091D80080628093D80019BC85E08093E4
:100910007C010BD28091E10084FF2DC08091E20028
:1009200084FF29C080E189BD82E189BD09B400FE50
:10093000FDCF8091D8008F7D8093D8008091E10019
:100940008F7E8093E1008091E2008F7E8093E200B1
:100950008091E20081608093E20080917801882399
:1009600021F48091E30087FF02C084E001C081E0B0
:1009700080937C01DAD18091E10083FF27C08091D0
:10098000E20083FF23C08091E100877F8093E10034
:1009900082E080937C01109278018091E1008E7F4B
:1009A0008093E1008091E2008E7F8093E20080914D
:1009B000E20080618093E20080E060E042E028DEB7
:1009C0008091F00088608093F000AFD1FF91EF91AB
:1009D000BF91AF919F918F917F916F915F914F9157
:1009E0003F912F910F900FBE0F901F9018951F925F
:1009F0000F920FB60F9211242F933F934F935F9353
:100A00006F937F938F939F93AF93BF93CF93EF9306
:100A1000FF93C091E900CF708091EC001092E90043
:100A20008091F000877F8093F00078941BD0109223
:100A3000E9008091F00088608093F000C093E900A5
:100A4000FF91EF91CF91BF91AF919F918F917F9146
:100A50006F915F914F913F912F910F900FBE0F902B
:100A60001F9018951F93DF93CF93CDB7DEB7AC9748
:100A70000FB6F894DEBF0FBECDBFEDE7F1E0809179
:100A8000F100819321E0E538F207C9F7C0DC8091DD
:100A9000E80083FF32C180917D0120917E012530E5
:100AA00009F484C0263040F42130A1F1213070F0E7
:100AB000233009F022C12EC0283009F4F0C02930BB
:100AC00009F4FFC0263009F018C193C0803821F026
:100AD000823809F012C108C08091790190917A01A1
:100AE000992371F082600CC0809181018F70809396
:100AF000E9009091EB0081E095FF80E01092E90021
:100B00009091E800977F9093E8008093F100109215
:100B1000F100D0C0882319F0823009F0EEC090E0D7
:100B20008F719070009729F08230910509F0E5C02F
:100B30000BC080917F01813009F0DFC0233009F0C4
:100B400080E080937A012CC080917F01882341F559
:100B5000209181012F7009F4D0C02093E900809189
:100B6000EB0080FF1DC080917E01833021F48091D5
:100B7000EB00806213C08091EB0080618093EB00FA
:100B800081E090E002C0880F991F2A95E2F78093D8
:100B9000EA001092EA008091EB0088608093EB00FD
:100BA0001092E9008091E800877F87C0882309F0D0
:100BB000A4C010917F011F778091E3008078812B82
:100BC0008093E3008091E800877F8093E80094DDC4
:100BD0008091E80080FFFCCF8091E30080688093E3
:100BE000E300112311F083E001C082E080937C01D7
:100BF00084C08058823008F080C080917F0190913D
:100C0000800123E08C3D920791F583E08C838AE29A
:100C10008B835FB7F894DE01159680E090E04EE09C
:100C200061E2E42FF0E060935700E49180FF03C09D
:100C3000E295EF704F5FEF702E2F30E0EA3018F042
:100C4000295C3F4F02C0205D3F4F2D933D9301969D
:100C50008431910531F75FBF8091E800877F8093F1
:100C6000E800CE0103966AE270E00BDC12C06091EE
:100C70008101AE014F5F5F4FD5DBBC01009709F4E6
:100C80003CC08091E800877F8093E80089819A8149
:100C90005BDC8091E8008B778093E8002EC0803881
:100CA00061F58091E800877F8093E800809178016A
:100CB0008093F1008091E8008E778093E8001CDD3E
:100CC0001CC08823D1F490917F019230B0F48091C0
:100CD000E800877F8093E800909378010DDD809194
:100CE0007801882321F48091E30087FF02C084E02B
:100CF00001C081E080937C0187DB8091E80083FF65
:100D00000AC08091E800877F8093E8008091EB0023
:100D100080628093EB00AC960FB6F894DEBF0FBEF6
:100D2000CDBFCF91DF911F9108950895CF9380910A
:100D30007C018823A9F08091E9008F709091EC00EC
:100D400090FF02C0C0E801C0C0E0C82B1092E900CB
:100D50008091E80083FF01C085DECF70C093E90079
:100D6000CF910895CF93DF93EC018091E80083FF4A
:100D7000A3C0888190E020918101309182012817E1
:100D8000390709F099C080917E01813269F0823281
:100D900020F4803209F090C03CC0823209F46BC06C
:100DA000833209F089C07AC080917D01813A09F0CF
:100DB00083C08091E800877F8093E8008091E800FD
:100DC00080FFFCCF2C893D894E895F892093F100FB
:100DD000BB27A52F942F832F8093F100CA01AA2748
:100DE000BB278093F100252F3327442755272093D5
:100DF000F100888D8093F100898D8093F1008A8DB8
:100E00008093F1008091E8008E778093E80074DC95
:100E100053C080917D01813209F04EC08091E8007D
:100E2000877F8093E80005C080917C01882309F4C6
:100E300043C08091E80082FFF7CF3091F10020910C
:100E4000F1009091F1008091F1003C8B2D8B9E8BF5
:100E50008F8B8091F100888F8091F100898F809134
:100E6000F1008A8F8091E8008B778093E80044DC62
:100E7000CE0162D121C080917D018132E9F480915F
:100E8000E800877F8093E80037DC80917F019091B4
:100E90008001998B888BCE01BDDA0EC080917D01D7
:100EA000813251F48091E800877F8093E80024DC50
:100EB000CE0160917F0140D1DF91CF910895CF9312
:100EC000DF93EC014096FC018BE0DF011D928A95D7
:100ED000E9F782E08C83898783E08E87CE010196D3
:100EE00061E0CDDB882359F0CE01069661E0C7DBD7
:100EF000882329F0CE010B9661E0C1DB01C080E0C0
:100F0000DF91CF910895DF93CF930F92CDB7DEB7E6
:100F1000FC0180917C018430F9F42489358946896B
:100F200057892115310541055105B1F081818F7037
:100F30008093E9008091E80085FD0AC08091E80077
:100F40008E778093E8006983F8DB6981882329F430
:100F50006093F10080E001C082E00F90CF91DF91BB
:100F60000895282FFB0184859585622FCCDF882387
:100F700019F02FEF3FEF02C020E030E0C9010895E3
:100F8000FC0180917C01843051F5248935894689A2
:100F90005789211531054105510509F181818F706E
:100FA0008093E9009091F3008091F200392F20E0C6
:100FB00090E0822B932B0097A1F09091E800809114
:100FC000E8008E778093E80095FD0DC0B6DB88239E
:100FD00059F49091E8009E779093E800089582E09C
:100FE000089580E0089580E0089520917C012430E8
:100FF00099F4FC01248935894689578921153105E1
:101000004105510549F021812F702093E90020917D
:10101000E80020FF01C0B4CF0895FC0180917C015D
:10102000843061F524893589468957892115310530
:101030004105510519F186818F708093E9008091F7
:10104000E80082FF1BC09091F3008091F200392FDD
:1010500020E090E0822B932B009731F48091E80000
:101060008B778093E8000AC03091F3002091F20062
:10107000932F80E030E0282B392B02C020E030E0B5
:10108000C9010895FC0180917C01843099F524897F
:10109000358946895789211531054105510551F199
:1010A00086818F708093E9008091E80082FF22C0E2
:1010B0009091F3008091F200392F20E090E0822B94
:1010C000932B009721F02091F10030E002C02FEF28
:1010D0003FEF9091F3008091F200592F40E090E0B3
:1010E000842B952B009741F48091E8008B778093B7
:1010F000E80002C02FEF3FEFC9010895FC0184858D
:101100009585C0DF9C0197FF02C02EEF3FEFC9011C
:101110000895FB012EE0DB011D922A95E9F723E0FB
:10112000238321EB37E0318720872EE738E03387B0
:1011300022879587848708950895EF92FF920F93F1
:101140001F93CF93DF937C01EB018B8181FF11C053
:1011500000E010E008C0E885F985BE010995009718
:1011600011F00FEF1FEFF70181917F01882399F7AD
:1011700002C00FEF1FEFC801CDB7DEB7E6E0C0C277
:10118000AEE0B0E0E5ECF8E0A1C20D891E8986E092
:101190008C831A8309838FEF9FE79E838D839E0143
:1011A000275E3F4FCE0101966F89788DA90108D047
:1011B000EF81F885E00FF11F10822E96E4E0A2C2C5
:1011C000ACE0B0E0E5EEF8E073C26C011B018A010F
:1011D000FC0117821682838181FFC4C12E0108940D
:1011E000411C511CF6019381F10193FD859193FF00
:1011F00081911F01882309F4B1C1853239F493FD2F
:10120000859193FF81911F01853221F490E0B60111
:10121000C5D1E8CFEE24FF2420E02032B0F48B3299
:1012200069F08C3228F4803251F0833271F40BC0B3
:101230008D3239F0803349F421602CC02260246063
:1012400029C0286027C0206125C027FD2CC0382F69
:1012500030533A3098F426FF08C08E2D880FE82EC0
:10126000EE0CEE0CE80EE30E15C08F2D880FF82E55
:10127000FF0CFF0CF80EF30E20620CC08E3221F42E
:1012800026FD6CC1206406C08C3611F4206802C0B3
:10129000883649F4F10193FD859193FF81911F01F7
:1012A000882309F0BACF982F9554933018F09052B4
:1012B000933028F40C5F1F4FFFE3F9830DC0833692
:1012C00031F0833771F0833509F05CC021C0F8013B
:1012D000808189830E5F1F4F420171E0A72EB12CE0
:1012E00015C062E0662E712C600E711EF8018080C0
:1012F000918026FF03C06E2D70E002C06FEF7FEF7C
:10130000C4012C8740D15C0183012C852F7716C046
:1013100052E0652E712C600E711EF8018080918064
:1013200026FF03C06E2D70E002C06FEF7FEFC40197
:101330002C871ED15C012C852068830123FD1EC0F3
:1013400007C080E290E0B6012C8728D1FA942C8562
:101350008F2D90E0A816B906A0F310C0F40127FD68
:10136000859127FF81914F0190E0B6012C8716D11E
:101370002C85F110FA940894A108B108A114B104C5
:1013800069F7E9C0843611F0893641F527FF08C0B6
:10139000F80160817181828193810C5F1F4F09C0C8
:1013A000F80160817181882777FD8095982F0E5F05
:1013B0001F4F4FE6B42EB22297FF09C0909580953B
:1013C000709561957F4F8F4F9F4FF0E8BF2AA20124
:1013D0002AE030E00FD1782E741844C0853731F4FC
:1013E0003FEEB32EB2222AE030E025C099EFB92EAD
:1013F000B2228F36C1F0803720F4883509F0AEC0B4
:101400000DC0803721F0883709F0A8C002C020E164
:10141000B22AB4FE0BC084E0B82A08C0B4FE09C0EA
:10142000E6E0BE2A06C028E030E005C020E130E05A
:1014300002C020E132E0B7FE08C0F801608171818E
:10144000828193810C5F1F4F07C0F8016081718119
:1014500080E090E00E5F1F4FA201CCD0782E741870
:10146000FFE7BF22B6FE0BC02EEFB2227E1438F487
:10147000B4FE07C0B2FC05C08FEEB82202C0A72C94
:1014800001C0AE2C8B2D90E0B4FE0DC0FE01E70D27
:10149000F11D2081203319F4E9EEBE2209C0A39486
:1014A000B2FE06C004C086789070009709F0A3943D
:1014B0008B2C9924B3FC13C0B0FE0EC0AF1428F4DB
:1014C000E72CEF0CEA18AF2C07C0E72C05C080E230
:1014D00090E0B60163D0A394AF14C8F304C0AF1476
:1014E00010F4FA1801C0FF2484FE0EC080E390E0DF
:1014F000B60154D082FE1DC081FE03C088E590E095
:1015000010C088E790E00DC0C40186789070009705
:1015100081F081FC02C080E201C08BE2B7FC8DE269
:1015200090E0B6013BD005C080E390E0B60136D034
:10153000EA947E14C8F37A94F201E70DF11D8081DC
:1015400090E0B6012BD07720B1F705C080E290E0A3
:10155000B60124D0FA94FF20C9F744CEF6012681C3
:10156000378102C02FEF3FEFC9012C96E2E1BCC0EA
:10157000FC010590615070400110D8F7809590955E
:101580008E0F9F1F0895FC01615070400190011063
:10159000D8F7809590958E0F9F1F08950F931F93F6
:1015A000CF93DF938C01EB018B8181FF1BC082FF06
:1015B0000DC02E813F818C819D812817390764F4ED
:1015C000E881F9810193F983E88306C0E885F9850C
:1015D000802F0995009731F48E819F8101969F831A
:1015E0008E8302C00FEF1FEFC801DF91CF911F91D3
:1015F0000F910895FA01AA27283051F1203181F185
:10160000E8946F936E7F6E5F7F4F8F4F9F4FAF4F0A
:10161000B1E03ED0B4E03CD0670F781F891F9A1F1D
:10162000A11D680F791F8A1F911DA11D6A0F711DD1
:10163000811D911DA11D20D009F468943F912AE0DD
:10164000269F11243019305D3193DEF6CF010895C5
:10165000462F4770405D4193B3E00FD0C9F7F6CFF6
:10166000462F4F70405D4A3318F0495D31FD4052BE
:10167000419302D0A9F7EACFB4E0A6959795879554
:1016800077956795BA95C9F7009761057105089533
:101690009B01AC010A2E06945795479537952795DF
:1016A000BA95C9F7620F731F841F951FA01D089577
:1016B0002F923F924F925F926F927F928F929F9262
:1016C000AF92BF92CF92DF92EF92FF920F931F9350
:1016D000CF93DF93CDB7DEB7CA1BDB0B0FB6F89401
:1016E000DEBF0FBECDBF09942A88398848885F8441
:1016F0006E847D848C849B84AA84B984C884DF80B2
:10170000EE80FD800C811B81AA81B981CE0FD11D95
:101710000FB6F894DEBF0FBECDBFED010895F8946B
:02172000FFCFF9
:1017220025642C25750A00726F746F0A007B226E85
:10173200616D65223A2022726F746F222C2022760C
:10174200657273696F6E22203A2022302E302E315C
:1017520022207D0A00008310000001041000000115
:1017620082080000010000000000000000000000EC
:041772000000010072
:00000001FF
